:060000000A128A1100291A
:10000800F000030EF1000B196221710E8300F00E4F
:04001800700E09005D
:10020000AE21CF21D621CA21FE30FE000313831276
:100210001A211F21F400061C3821861C3E21061DD0
:1002200042217208013EF50046214F215821FB0171
:10023000FC010829323072051522F300080072080B
:10024000033C031856347208063C031855347208F0
:10025000093C0318543472080D3C031853347208D7
:10026000103C0318523472081D3C031851345034AA
:10027000061C38290130FF0685010800861C3E292E
:10028000F20A0800061D4229F20308000A30F502AE
:10029000FC0A03184629FC030A30F5070800013060
:1002A000F502FB0A03184F29FB030130F50708008C
:1002B0007A080022F7007B080022F8007C08002260
:1002C000F90008006E218B21031383167408810046
:1002D00003138312730881000B1108007F18732128
:1002E0007F1C75210800850908007D1C7A217D1876
:1002F00082210800850A0508FF3C031D8129013081
:10030000FD0608008503FE03031D8A29FE30FE005A
:100310000130FD0608008801F61C90297618A829EE
:10032000F618A22976189C299629080077088700D4
:1003300008147614F61008007708870088147610E1
:10034000F61408007808870008157614F6140800DB
:100350007908870088157610F610080003178316B1
:10036000880189010313831685018701081088100D
:100370000811881181131514951406148614061596
:100380008615031383128501860187018801F30115
:10039000F40108000313831681128111080003136E
:1003A00083160F178F160F120F1408008B178B165A
:0403B0000B11080025
:100400008A010A108A14093982073F3406345B34A2
:100410004F3466346D347D3407347F346F34773431
:100420007C3439345E34793471348A010A108A1488
:1004300032398207B234D934E634D934E134E6347F
:10044000D434D934DD34C234C734CC34D034A734B6
:10045000AD34B2346D3475347D34833489348E34A4
:10046000933498349C34A034A334A734AA34593438
:100470005F34643468346D347134753479347C3469
:1004800080348334863489348C348E34913493347C
:08049000963498349A349C3430
:04400E00D420FF3F7C
:00000001FF
